{
  "contractName": "TicketSale",
  "abi": [
    {
      "inputs": [
        {
          "internalType": "uint256",
          "name": "_ticketPrice",
          "type": "uint256"
        },
        {
          "internalType": "uint256",
          "name": "_ticketsAvailable",
          "type": "uint256"
        }
      ],
      "stateMutability": "nonpayable",
      "type": "constructor"
    },
    {
      "anonymous": false,
      "inputs": [
        {
          "indexed": false,
          "internalType": "address",
          "name": "buyer",
          "type": "address"
        },
        {
          "indexed": false,
          "internalType": "uint256",
          "name": "amount",
          "type": "uint256"
        }
      ],
      "name": "TicketPurchased",
      "type": "event"
    },
    {
      "inputs": [],
      "name": "owner",
      "outputs": [
        {
          "internalType": "address",
          "name": "",
          "type": "address"
        }
      ],
      "stateMutability": "view",
      "type": "function",
      "constant": true
    },
    {
      "inputs": [],
      "name": "ticketPrice",
      "outputs": [
        {
          "internalType": "uint256",
          "name": "",
          "type": "uint256"
        }
      ],
      "stateMutability": "view",
      "type": "function",
      "constant": true
    },
    {
      "inputs": [],
      "name": "ticketsAvailable",
      "outputs": [
        {
          "internalType": "uint256",
          "name": "",
          "type": "uint256"
        }
      ],
      "stateMutability": "view",
      "type": "function",
      "constant": true
    },
    {
      "inputs": [
        {
          "internalType": "address",
          "name": "",
          "type": "address"
        }
      ],
      "name": "ticketsOwned",
      "outputs": [
        {
          "internalType": "uint256",
          "name": "",
          "type": "uint256"
        }
      ],
      "stateMutability": "view",
      "type": "function",
      "constant": true
    },
    {
      "inputs": [
        {
          "internalType": "uint256",
          "name": "_amount",
          "type": "uint256"
        }
      ],
      "name": "buyTickets",
      "outputs": [],
      "stateMutability": "payable",
      "type": "function",
      "payable": true
    },
    {
      "inputs": [],
      "name": "withdraw",
      "outputs": [],
      "stateMutability": "nonpayable",
      "type": "function"
    }
  ],
  "bytecode": "0x608060405234801561001057600080fd5b506040516108d43803806108d48339818101604052810190610032919061009c565b336000806101000a81548173ffffffffffffffffffffffffffffffffffffffff021916908373ffffffffffffffffffffffffffffffffffffffff160217905550816001819055508060028190555050506100f9565b600081519050610096816100e2565b92915050565b600080604083850312156100af57600080fd5b60006100bd85828601610087565b92505060206100ce85828601610087565b9150509250929050565b6000819050919050565b6100eb816100d8565b81146100f657600080fd5b50565b6107cc806101086000396000f3fe6080604052600436106100555760003560e01c80631209b1f61461005a57806318253234146100855780632f366637146100b05780633ccfd60b146100cc5780638da5cb5b146100e3578063951e20211461010e575b600080fd5b34801561006657600080fd5b5061006f61014b565b60405161007c91906105ed565b60405180910390f35b34801561009157600080fd5b5061009a610151565b6040516100a791906105ed565b60405180910390f35b6100ca60048036038101906100c5919061041c565b610157565b005b3480156100d857600080fd5b506100e1610296565b005b3480156100ef57600080fd5b506100f861038d565b6040516101059190610549565b60405180910390f35b34801561011a57600080fd5b50610135600480360381019061013091906103f3565b6103b1565b60405161014291906105ed565b60405180910390f35b60015481565b60025481565b60015481610165919061066f565b34146101a6576040517f08c379a000000000000000000000000000000000000000000000000000000000815260040161019d9061058d565b60405180910390fd5b8060025410156101eb576040517f08c379a00000000000000000000000000000000000000000000000000000000081526004016101e2906105cd565b60405180910390fd5b80600360003373ffffffffffffffffffffffffffffffffffffffff1673ffffffffffffffffffffffffffffffffffffffff168152602001908152602001600020600082825461023a9190610619565b92505081905550806002600082825461025391906106c9565b925050819055507f0668f5b446eb814fe35b3206f43f14bd8567ba04ddaf7a3ee56516929ab22ccb338260405161028b929190610564565b60405180910390a150565b60008054906101000a900473ffffffffffffffffffffffffffffffffffffffff1673ffffffffffffffffffffffffffffffffffffffff163373ffffffffffffffffffffffffffffffffffffffff1614610324576040517f08c379a000000000000000000000000000000000000000000000000000000000815260040161031b906105ad565b60405180910390fd5b60008054906101000a900473ffffffffffffffffffffffffffffffffffffffff1673ffffffffffffffffffffffffffffffffffffffff166108fc479081150290604051600060405180830381858888f1935050505015801561038a573d6000803e3d6000fd5b50565b60008054906101000a900473ffffffffffffffffffffffffffffffffffffffff1681565b60036020528060005260406000206000915090505481565b6000813590506103d881610768565b92915050565b6000813590506103ed8161077f565b92915050565b60006020828403121561040557600080fd5b6000610413848285016103c9565b91505092915050565b60006020828403121561042e57600080fd5b600061043c848285016103de565b91505092915050565b61044e816106fd565b82525050565b6000610461601783610608565b91507f56616c6f7220696e636f727265746f20656e766961646f0000000000000000006000830152602082019050919050565b60006104a1602183610608565b91507f4170656e6173206f2070726f7072696574c3a172696f20706f6465207361636160008301527f72000000000000000000000000000000000000000000000000000000000000006020830152604082019050919050565b6000610507601783610608565b91507f496e67726573736f7320696e737566696369656e7465730000000000000000006000830152602082019050919050565b6105438161072f565b82525050565b600060208201905061055e6000830184610445565b92915050565b60006040820190506105796000830185610445565b610586602083018461053a565b9392505050565b600060208201905081810360008301526105a681610454565b9050919050565b600060208201905081810360008301526105c681610494565b9050919050565b600060208201905081810360008301526105e6816104fa565b9050919050565b6000602082019050610602600083018461053a565b92915050565b600082825260208201905092915050565b60006106248261072f565b915061062f8361072f565b9250827fffffffffffffffffffffffffffffffffffffffffffffffffffffffffffffffff0382111561066457610663610739565b5b828201905092915050565b600061067a8261072f565b91506106858361072f565b9250817fffffffffffffffffffffffffffffffffffffffffffffffffffffffffffffffff04831182151516156106be576106bd610739565b5b828202905092915050565b60006106d48261072f565b91506106df8361072f565b9250828210156106f2576106f1610739565b5b828203905092915050565b60006107088261070f565b9050919050565b600073ffffffffffffffffffffffffffffffffffffffff82169050919050565b6000819050919050565b7f4e487b7100000000000000000000000000000000000000000000000000000000600052601160045260246000fd5b610771816106fd565b811461077c57600080fd5b50565b6107888161072f565b811461079357600080fd5b5056fea2646970667358221220e752fd5857d35d7cff6b7d9113b5a4717dcc75f81996104b6a47fc811a0ee1ee64736f6c63430008000033",
  "immutableReferences": {},
  "source": "// SPDX-License-Identifier: MIT\npragma solidity ^0.8.0;\n\ncontract TicketSale {\n    address public owner;\n    uint public ticketPrice;\n    uint public ticketsAvailable;\n\n    mapping(address => uint) public ticketsOwned;\n\n    event TicketPurchased(address buyer, uint amount);\n\n    constructor(uint _ticketPrice, uint _ticketsAvailable) {\n        owner = msg.sender;\n        ticketPrice = _ticketPrice;\n        ticketsAvailable = _ticketsAvailable;\n    }\n\n    function buyTickets(uint _amount) public payable {\n        require(msg.value == _amount * ticketPrice, \"Valor incorreto enviado\");\n        require(ticketsAvailable >= _amount, \"Ingressos insuficientes\");\n\n        ticketsOwned[msg.sender] += _amount;\n        ticketsAvailable -= _amount;\n\n        emit TicketPurchased(msg.sender, _amount);\n    }\n\n    function withdraw() public {\n        require(msg.sender == owner, unicode\"Apenas o proprietrio pode sacar\");\n        payable(owner).transfer(address(this).balance);\n    }\n}\n",
  "sourcePath": "/media/kaicolas/D0B4FCE2B4FCCBCA/desenvolvimento/ESTUDOS/tickets/blockchain/contracts/TicketSale.sol",
  "compiler": {
    "name": "solc",
    "version": "0.8.0+commit.c7dfd78e.Emscripten.clang"
  },
  "schemaVersion": "3.4.16",
  "updatedAt": "2024-09-24T02:04:44.881Z",
  "networkType": "ethereum",
  "devdoc": {
    "kind": "dev",
    "methods": {},
    "version": 1
  },
  "userdoc": {
    "kind": "user",
    "methods": {},
    "version": 1
  }
}